:020000040800F2
:100000000000052099050008451F0008471F00084B
:10001000491F00084B1F00084D1F0008000000008A
:100020000000000000000000000000001175000842
:100030004F1F000800000000A1750008356E000881
:10004000E9050008E9050008E9050008E9050008D8
:10005000E9050008E9050008E9050008E9050008C8
:10006000E9050008E9050008E9050008E9050008B8
:10007000E9050008E9050008E9050008E9050008A8
:10008000E9050008E9050008E9050008E905000898
:10009000E9050008E9050008E9050008E905000888
:1000A000E9050008E9050008E9050008E905000878
:1000B000E9050008E9050008E9050008E905000868
:1000C000E9050008E9050008E9050008E905000858
:1000D000E9050008E9050008E9050008E905000848
:1000E000E9050008E9050008E9050008E905000838
:1000F000E9050008E9050008E9050008E905000828
:10010000E9050008E9050008E9050008E905000817
:10011000E9050008E9050008511F0008E905000885
:10012000E9050008E9050008E9050008E9050008F7
:10013000E9050008E9050008E9050008E9050008E7
:10014000E9050008E9050008E9050008E9050008D7
:10015000E9050008E9050008E9050008E9050008C7
:10016000E9050008E9050008E9050008E9050008B7
:10017000E9050008E9050008E9050008000000009D
:10018000E9050008E9050008E9050008E905000897
:10019000E9050008E9050008E9050008E905000887
:1001A0005D1F0008E9050008691F0008E90500084F
:0401B000751F0008AF
:1001C00010B5054C237833B9044B13B10448AFF391
:1001D00000800123237010BD4001002000000000BA
:1001E000D4CB010808B5034B1BB103490348AFF357
:1001F000008008BD0000000044010020D4CB0108AD
:1002000001F0FF01102A2BDB10F0070F08D010F8C7
:10021000013B013A8B422DD010F0070F42B3F6D1CB
:10022000F0B441EA012141EA014122F007047FF0E4
:1002300000070023F0E80256083C85EA010586EA3B
:10024000010685FA47F5A3FA87F586FA47F6A5FA77
:1002500087F68EB9EED1F0BC01F0FF0102F0070283
:1002600032B110F8013B013A83EA010313B1F8D12E
:100270000020704701387047002D06BF354603380F
:10028000073815F0010F07D1013015F4807F02BF48
:10029000013015F4C03F0130F0BC0138704700BF99
:1002A00053B94AB9002908BF00281CBF4FF0FF31DD
:1002B0004FF0FF3000F06EB9ADF1080C6DE904CEDF
:1002C00000F006F8DDF804E0DDE9022304B0704731
:1002D0002DE9F047089D04468C46002B40F08380B2
:1002E0008A42174647D9B2FA82F242B1C2F12000DF
:1002F00024FA00F09140974040EA010C94404FEA04
:100300001748230CBCFBF8F61FFA87FE08FB16C142
:1003100043EA014306FB0EF1994209D9FB1806F1A5
:10032000FF3080F01981994240F21681023E3B4431
:100330005B1AA4B2B3FBF8F008FB103344EA0344A1
:1003400000FB0EFEA64509D93C1900F1FF3380F0F1
:100350000581A64540F2028102383C4440EA06404D
:10036000A4EB0E0400261DB1D4400023C5E90043D0
:100370003146BDE8F08702B9FFDEB2FA82F2002A08
:1003800050D1CB1B4FEA174E1FFA87F80126B3FB5B
:10039000FEFC210C0EFB1C3341EA034108FB0CF36D
:1003A0008B4207D979180CF1FF3002D28B4200F250
:1003B000E9808446C91AA3B2B1FBFEF00EFB10110E
:1003C00043EA014408FB00F8A04507D93C1900F1B5
:1003D000FF3302D2A04500F2D9801846A4EB0804EE
:1003E00040EA0C40BFE78B4209D9002D00F0B180F4
:1003F0000026C5E9000130463146BDE8F087B3FA72
:1004000083F6002E4AD18B4202D3824200F2B8809A
:10041000841A61EB030101208C46002DA8D0C5E9A8
:10042000004CA5E7C2F1200320FA03F6974001FA39
:1004300002F04FEA174ED9403043030CB1FBFEF6F1
:100440001FFA87F80EFB161143EA014306FB08F179
:10045000994204FA02F409D9FB1806F1FF3C80F036
:100460008D80994240F28A80023E3B445B1A81B201
:10047000B3FBFEF00EFB103341EA034100FB08F32F
:100480008B4207D9791800F1FF3C73D28B4271D9A6
:1004900002383944CB1A40EA064678E7C6F1200C08
:1004A00003FA06F422FA0CF31C4320FA0CF701FAC3
:1004B00006F34FEA144E21FA0CF11F433B0CB1FB3B
:1004C000FEF91FFA84F80EFB191143EA014109FBFA
:1004D00008FA8A4502FA06F200FA06F308D961180A
:1004E00009F1FF3048D28A4546D9A9F102092144D1
:1004F000A1EB0A01BFB2B1FBFEF00EFB101147EAFF
:10050000014700FB08F8B84507D9E71900F1FF31AA
:100510002ED2B8452CD90238274440EA0940A7EB2F
:100520000807A0FB02894F45C64649461AD317D093
:100530005DB1B3EB0E0267EB010707FA0CFCF2406A
:100540004CEA0202F740C5E9002700263146BDE823
:10055000F0872E4628460BE70646E9E61846FDE6F4
:100560004345E5D2B8EB020E69EB04010138DFE741
:100570000846D2E760468DE78146B9E7664675E7EB
:1005800030464AE7ACF1020C394413E702383C44E8
:1005900024E700BF704700BFDFF834D0002103E03C
:1005A0000C4B5B58435004310B480C4B42189A4299
:1005B000F6D30B4A02E0002342F8043B094B9A426F
:1005C000F9D303F033FC1BF0D5FA00F081FF70473C
:1005D00000000520BC0202080000002040010020AD
:1005E0004001002024A80020FEE700F0DFBD00F05D
:1005F0004DBE0021084602F081BF002002F0B8BFC6
:100600004068704741607047054A136843F0807343
:100610001360044A136843F001031360704700BF7E
:10062000FCED00E0001000E0511A01EB5301B1FBBA
:10063000F3F07047014B1868704700BF041000E0EA
:10064000704710B50C2104461BF01CFA204610BD63
:10065000036810B51B69044631B19847A268636806
:100660009B1A1844606010BD9847A060FBE7704774
:100670007047000008B5FFF7BCFF024B00221A606C
:1006800008BD00BF5C01002070B50D46FFF7B5FF47
:100690000B4A937856781178D370C4B213F00100E6
:1006A0009670517014700AD016F0010007D011F046
:1006B000010004D0E3075ABF01202870002070BD5C
:1006C0005C01002010B5042104461BF0DBF9204634
:1006D00010BD704710B5042104461BF0D3F9204625
:1006E00010BD000008B54FF4F0714FF4487003F0EE
:1006F000E9FA074B10B901221A7008BD1B78002BCC
:10070000FBD1044B044A054826211BF0E9F900BF40
:100710006001002070CC010883CC0108ADCC010839
:100720007FB50B4B1C780E4615465CB101A803F053
:1007300007FB9DF8043043B1BDF806303360BDF8C7
:100740000A302B60204604B070BD1C46FAE700BF9B
:100750006001002010B1012809D07047084B0948FA
:100760001A68B2FA82F25209402104F081BB044BAC
:1007700005485A68B2FA82F252091021F5E700BF23
:100780006401002000180240000C024010B1012852
:1007900009D07047084B09481A68003A18BF01226F
:1007A000402104F065BB044B05485A68003A18BF65
:1007B00001221021F5E700BF64010020001802406B
:1007C000000C024010B1012804D0704703484021BA
:1007D00004F053BB02481021FAE700BF00180240A2
:1007E000000C024008B530B1012809D00020431E9A
:1007F0005842584108BD0448402104F033FBF6E755
:1008000002481021F9E700BF00180240000C024026
:1008100070B5084D00240126E0B2FFF7E3FF18B1E0
:100820002B68012B18BF2E600134052C05F104053F
:10083000F2D170BD64010020012380F8741080F8AB
:10084000753070470020704700207047836B0BB1F4
:100850000846184770474FF6FF70704740680368B6
:100860009B69184770477047014B1868704700BF75
:10087000740100207047000038B50446094DFFF7A9
:10088000C7FF204600F084FD002384F84A30284644
:10089000FFF7BAFE012384F86C30034B25616361D6
:1008A00038BD00BF800100207C01002003680446A1
:1008B00007B5DB6F9847236820465B6F984700F0C9
:1008C0002DFA23682046DB6E9847002106480091E8
:1008D0002923152204F0B5F800F020FA23682046F9
:1008E000DB6E9847F8E700BFB4A5002010B50446BA
:1008F00009F084FD23682046D3F8A430BDE81040F9
:10090000184700F044BD00F05BBD00F05BBD00F097
:100910002DBD00F033BD00F057BD000008B5094BF8
:100920001B888B4203D8084B1B88934205D9074B81
:10093000074A08489E211BF0D3F8074B1980074B44
:100940001A8008BDACA20020AEA2002014CD010880
:1009500077CD0108BACD0108B2A20020B4A20020D0
:10096000024B00221A7008F023BF00BF14000020C1
:1009700010B5044608F028FF94F84B3013B1024B31
:1009800001221A7010BD00BF1400002008F0D4BE70
:1009900010B57C2104461BF075F8204610BD90F878
:1009A00077301BB1406803681B68184718467047CA
:1009B00010B590F8341090F874400C4B8C421A78B3
:1009C00009D03AB90A4A0B491488088810800C806B
:1009D00001221A7010BD002AFCD0054A054914886E
:1009E000088810800C800022F3E700BFB0A200202E
:1009F000ACA20020AEA2002010B50C4C216031B991
:100A00000B4B0C4A0C484FF42B711BF069F8C0E9F2
:100A10000F12003A0949436418BF01220A70003BD3
:100A2000074A18BF0123137010BD00BF74010020D6
:100A3000FFCD010837CE0108BACD0108B6A20020CB
:100A4000B7A20020012807B50AD84B7800930B788D
:100A500008481522002103F0F4FF03B05DF804FB01
:100A600001910B5C0093392203460021014803F0F9
:100A7000F9FFF2E7B4A5002037B50B4A0B4C02236F
:100A800015251370557001924422009200213922DD
:100A9000204603F0E7FF0021009135232A46204637
:100AA00003F0CFFF03B030BD8C010020B4A50020BF
:100AB00007B50190FFF7E0FF019803B05DF804EB84
:100AC00000F064BC07B5074B03EB80002A230190BC
:100AD0000093392204230021034803F0C3FF03B02D
:100AE0005DF804FB04000020B4A5002070B5154D8E
:100AF00004460020FFF72EFE2A6892F86630013384
:100B000082F8663000F0FEF80F4B28681A781B78E0
:100B100080F84A2023B10D4D2B7803F0FF0623B156
:100B2000BDE870400020FFF731BE09F067FC084BBC
:100B300030461E60FFF7C6FF204603F072FF012318
:100B40002B7070BDB8A20020140000208E01002080
:100B500078010020304B314A70B505461868304C9A
:100B6000013018602F4B03281E682ADCD4F80414C7
:100B70004FF4C87303FB006321F00801C4F80414A8
:100B800093620CBFE823C823023327491B0443F4B4
:100B9000F1730B61254B4B61A3F5F0735360244B4C
:100BA000D36201234B62FFF78DFF1D4AD2F8043454
:100BB00043F008032846C2F80434BDE8704003F04F
:100BC00030BFD4F804341B4923F00803C4F80434BC
:100BD000154B9662196101F1011159611649516075
:100BE0001349D16201225A620020FFF76BFFD4F84B
:100BF000043443F00803C4F804340020FFF7C6FDB2
:100C00000E4B00221A700E4B186820B10368BDE825
:100C100070401B6A184770BD78010020846801404D
:100C2000006C01407401002000680140E301CA002B
:100C300093018006E201CA000300CA008E01002071
:100C4000B8A2002008B5044B0146186801B1012183
:100C500009F0EEFB012008BDB8A20020054B0648B4
:100C600000225A609A60054A1A60054B0360FFF73C
:100C700001BD00BF800100207C01002034CC0108B0
:100C80005CCC0108012108B50022084606F061F994
:100C90000A4B186028B90A4B0A4A29210A481AF057
:100CA0001FFF00220421012006F0F2F9074B186013
:100CB00018B9074B034A2D21F0E708BD9401002025
:100CC00058CF0108A1CF0108D0CF01089001002022
:100CD0001FD00108024B4FF0FF31186806F084B9AD
:100CE00094010020014B186806F0AAB99401002075
:100CF000024B0021186806F077B900BF940100206C
:100D0000FFF7F0BF03480449006800231A4606F0C5
:100D1000FBB900BF900100201800002013B5084C5B
:100D200000231A4601A9206806F01EFA20684FF039
:100D3000FF33002201A906F017FA02B010BD00BF70
:100D40009001002003685B6C18470120704703681E
:100D50009B6A184782B0002301930D4B1A6B42F433
:100D600000021A631A6B02F400020192019A1A69D6
:100D700042F400021A611A6922F400021A61054B5A
:100D8000054A1A61054B4FF080629A6002B07047C5
:100D9000003802407CA60020A90D000800E100E018
:100DA00040F2EF3070470000024B1B685868036840
:100DB0005B691847B8A2002008B50B280BD8DFE8FC
:100DC00000F01206100A0A0A0A080808080801209A
:100DD00008BD0520FCE7054B054A064867211AF0C7
:100DE0007FFE0020F4E70220F2E700BF61D0010897
:100DF0007CD00108C6D0010808B50A2809D8DFE868
:100E000000F010060E080808080606060600012075
:100E100008BD054B054A064888211AF061FE0020EE
:100E2000F6E70220F4E700BF61D0010813D1010802
:100E3000C6D001082DE9F84391F81D800C464046C4
:100E4000FFF7BAFFA77F05463846FFF7B5FF06460E
:100E50003846FFF7D1FFA18A628B4B4B521A1A64B6
:100E60009A61228B521A1A61E28A586342EA01425D
:100E70005A6421696268D963DA60D4F800C094F8D2
:100E80001C90BCF1800F4FEA09629E4630D014D806
:100E9000BCF1200F45EA020068D0BCF1400F65D0DC
:100EA000BCF1040F20D0384B2A4342F40032B8453D
:100EB000DA6148D140F2012214E0BCF5807F07D00E
:100EC000BCF5007FEFD142F4003242F0090203E0AA
:100ED00042F4003242F00A02DA61E2681A625E62AB
:100EE00059612A4A1A604CE040F40030D861F6E7B4
:100EF000A0682A4342F40032041DDC62DA61027801
:100F00005E62596142B1012A1FD0214B214A224819
:100F10004FF489711AF0E4FD4288D969501E21F41A
:100F20007F4222F0100242EA0022DA610124164BCD
:100F3000DA6942F02002DA61DA699206FCD4102202
:100F40009A60002CCDD1154ACCE74288D969501E51
:100F500021F47F4222F0100242EA0022B9F1FF049C
:100F600042F0100218BF0124DA61E0E7074B40F4B9
:100F70000030CEF81C00CEF82460CEF81410CEF865
:100F80000030BDE8F88300BF00B00240010202005B
:100F90005ED1010878D10108C6D001080102010024
:100FA00038B50C46887FFFF727FFA58AE18A164BE4
:100FB000628B586341EA05415964521B2169D96328
:100FC0001A642568082D0ED19A611A615862207F33
:100FD0000E4A42EA0062DA61E2681A620C4A59611A
:100FE000D9601A6038BD0022D8611A61E1680A0A26
:100FF000480902F4784200F4FC600243C1F3C401E2
:101000000A439A63034AECE700B00240090001007A
:101010000102020001020300054B0360054B4FF083
:101020008062C3F88820BFF34F8FBFF36F8F704784
:10103000C0D1010800E100E010B50446FFF7ECFF65
:1010400020464FF442611AF01DFD204610BD0000FD
:1010500070B5044625460A4B0C30002660602672A7
:10106000667245F8203B6022294609F015FB04F51D
:101070004263EE602035AB42FBD1204670BD00BF1D
:10108000C0D10108012070470C2070470C2303FBDE
:101090000100083070470C2303FB01000830704743
:1010A000012070474FF43C7070474FF43C7303FBD2
:1010B0000100083070474FF43C7303FB0100083017
:1010C0007047012070471020704700EB0110083076
:1010D000704700EB011008307047084601F07AB8FD
:1010E00010B5034B0360044608F056F8204610BDC7
:1010F00078D2010810B50446FFF7F2FF204614210C
:101100001AF0C0FC204610BD10B5034B0360044626
:1011100008F042F8204610BD44D2010810B504463C
:10112000FFF7F2FF20464FF43E711AF0ABFC204669
:1011300010BD000010B5034B0360044608F02CF806
:10114000204610BD10D2010810B50446FFF7F2FF8B
:10115000204618211AF096FC204610BD10B5084B09
:101160000360044600F54970FFF7BAFF04F12C0054
:10117000FFF7CAFF04F11400FFF7DCFF204610BDA3
:10118000ACD2010808B50248FFF7E8FF08BD00BF70
:101190009C01002010B50446FFF7E0FF204640F216
:1011A00094411AF06FFC204610BD00002DE9F34178
:1011B00000F052FF054600F053FF0024014623468D
:1011C0002846224600940EF0EDFB254B254A264D7D
:1011D0001A60204601F03AFD24480EF025FB2B78DA
:1011E000BFF35B8FDB0735D428461AF04DFC88B37C
:1011F0001F4C204B236004F54F7604F1140004F1DA
:101200002C0804F549776060C4F80880E76026611F
:1012100007F0C4FF184B6361404607F0BFFF174B50
:10122000E362384607F0BAFF154BC4F8243304F5DF
:101230004E7001F087FD224604F54E71304601F0F4
:1012400077FD304600F0C6FF28461AF029FC0D480D
:101250001AF064FC0C4802B0BDE8F041FFF70CBB8B
:1012600014A30020D0120020980100201C000020B0
:101270009C010020ACD2010810D2010844D2010820
:1012800078D2010885110008541200200148FFF7A8
:101290000DBB00BF5412002070B5244E244C254DC8
:1012A000254B23603046FFF7D3FE284611F04AFC59
:1012B000224B2348DC6000224FF48071C3E91212F4
:1012C00020491A85C3E919124FF08071596701212D
:1012D00083F878101C4983F82A200B604FF4507172
:1012E00001801A48DA62C3E90422C3E90622C3E98D
:1012F0000822C3E90E22C3E91022C3E91422C3E97C
:1013000016221A861A6683F86C201A67C3E90165EB
:1013100001800F4883F834204FF4F07101800D48AC
:1013200001800D490A700D4A1A6070BD3406002014
:1013300030060020D412002004CD010854120020F1
:10134000ACA2002001000001B8A20020B2A200203F
:10135000AEA20020B4A20020B0A2002090CE0108CE
:101360000148FFF759BE00BF34060020024B90220F
:1013700083F85A23704700BF00E100E0024B4FF0B2
:1013800080629A60704700BF00E100E070477047DC
:1013900038B5044608F025FA23681D6E0BF042FBB1
:1013A00001462046A8472368D3F8845000231A46F4
:1013B0004FF040412046A847012384F84A3038BD09
:1013C00008F0C0B908F01BBB044B4FF08062C3F8B3
:1013D0008820BFF34F8FBFF36F8F704700E100E0AD
:1013E0000149002007F000BA450C000880B50C4EFA
:1013F0000C4F0D4D0121304603F034FD0128044609
:1014000008D12021384603F038FD2B6801332B60CA
:10141000064B1C704FF4967005F08FFDEAE700BF95
:1014200000000240000C0240501300204C1300202A
:1014300030B595B01022002109A81AF0DDFB142266
:10144000002102A81AF0D8FB00241F4B00941A6C4C
:1014500042F080521A641B6C03F080530093009B8F
:101460001A4B01941A6842F440421A601B6803F454
:10147000404301930122019B4FF48033CDE90723C0
:1014800002254FF480030821CDE90D534FF4B473C6
:10149000CDE90F1304200623CDE9120307A8119507
:1014A00005F098F804F0E8FA0F23CDE9023504942A
:1014B0004FF480534FF4A054052102A8CDE9054311
:1014C00004F05CFE15B030BD0038024000700040F2
:1014D0002DE98048BBB002F0B7FCFFF7A9FF14224A
:1014E00000212DA800241AF087FBC74B03941A6B28
:1014F000C64842F010021A631A6B02F010020392FF
:10150000039A04941A6B42F002021A631A6B02F0F7
:1015100002020492049A05941A6B42F040021A6384
:101520001A6B02F040020592059A06941A6B42F07B
:1015300008021A631A6B02F008020692069A0794D0
:101540001A6B42F480721A631A6B02F4807207926B
:10155000079A08941A6B42F020021A631A6B02F081
:1015600020020892089A09941A6B42F480621A6366
:101570001A6B02F480620992099A0A941A6B42F07B
:1015800080021A631A6B02F080020A920A9A0B9484
:101590001A6B42F004021A631A6B02F004020B92F7
:1015A0000B9A0C941A6B42F001021A631A6B02F048
:1015B00001020C920C9A0D941A6B42F400721A6399
:1015C0001B6B03F40073224630210D930D9B03F037
:1015D0004FFC8F480122082103F04AFC8D48224627
:1015E000402103F045FC22468B48802103F040FC5B
:1015F0000127202385482DA9CDE92D3711254FF04E
:10160000080BCDE92F4403F0A5FA81482DA94FF02E
:1016100002084FF0100ACDE92DB5CDE92F4403F0B3
:1016200099FA7A48CDF8C0802DA9CDE92DA72F943D
:1016300003F090FA402377482DA9CDE92D37CDE965
:101640002F4803F087FA75482F942DA98026CDE9FD
:101650002D7403F07FFA2DA903236F483093CDE951
:101660002D652F9403F076FA6D486E4D6E4B036036
:1016700002F090FC6D4BC5E90A44C5E90C442846CC
:10168000C5E90034C5E9024402F098FD3946284610
:1016900002F04CFE314622465F4803F0E9FB14207D
:1016A00002F0FEFB31463A465B4803F0E1FB0A20BC
:1016B00002F0F6FB2422214617A81AF09DFA182200
:1016C000214611A81AF098FA342221462DA81AF0C2
:1016D00093FA2C2221460DEB06001AF08DFA544E97
:1016E000544B10940425C6E900340EA97D233046DE
:1016F000CDE90E38C6E9025702F0E0FE17A93046E0
:10170000CDE91774CDE91944CDE91B44CDE91D4459
:101710001F9403F0FDF81C222123CDE911230F2192
:101720001923CDE91313304611A9CDE9154403F06F
:10173000B2F82946304603F09DF842F21071304667
:1017400003F0F1F92146304602F055FE4FF4807067
:101750004FF40073CDE92D034FF480694FF400631B
:10176000CDE92F934FF480524FF400534FF4804C47
:10177000CDE931234FF480334FF4003ECDE933C33C
:101780004FF48023CDE935E34FF400224FF080730E
:101790002DA93046CDE93723CDF8E48003F036F8A3
:1017A000C82320A93046CDE9223ACDE92445CDE928
:1017B0002684CDE92044CDE928442A9702F0B4FFDD
:1017C0002146304602F09FFF1B481C49CDF8B480EB
:1017D000C0E9001440232021C0E904134FF4C07174
:1017E0004FF48052C0E906144FF480430721C0E94A
:1017F0000923CDE92E15032330912DA9CDE93138E8
:10180000C0E902451CE000BF00380240000C024065
:101810000028024000180240001C02400000024064
:10182000ACA500207CA600200030024000B00240A1
:10183000B4A50020006C0140BCA60020400100A01F
:10184000CDF8CC80046205F07BF802F025FA02F0B6
:10185000D5F92146342220A81AF0CEF9544D554A24
:10186000AC86C5E90024CA204FF4F1724FF0CB0CCE
:10187000C5E9090240F2E3122846C5E90BC2C5E9F1
:101880000678C5F82080C5E90244C5E9044785F813
:10189000364003F0BBFFFF214FF0050EC8234FF485
:1018A000F072CDE925144FF04041CDE928E1CDE9B2
:1018B0002328CDE92A3220A922462846CDE9213421
:1018C0002094CDF89C90ADF8B0408DF8B24004F073
:1018D00069F82A68936923F001039361304603F0A5
:1018E0007DF83946404601F04BFB2823152221465E
:1018F0000094304603F0A5F82DA93046CDE92D44DB
:10190000CDE92F44CDE93144CDE93344CDE9354427
:10191000379402F07BFF4FF448712246284604F0CA
:101920006FF82A6824489369244DDFF8B8803B4358
:101930009361234B0462C0E900371B23C0E90439DB
:10194000C0E9027AC0E9064404F0AEF902F01CF8DE
:1019500001F050FF01F0C6FE1A4B2C62C5E900836E
:1019600028464FF48043C5E90434C5E90244C5E97B
:10197000064403F067FC284603F00CFDFEF735FE35
:1019800022465946104803F073FA05F061FA0F4AEF
:101990000F48214605F088FA0E4B0F4A1860214681
:1019A0000E4805F081FA0E4B186005F063FAFEE769
:1019B000D0A5002000680140F0A6002058A5002016
:1019C000001000A0801A060000280240F8D201088A
:1019D000ED13000854A50020D4D20108EF0500083B
:1019E00078A60020005400400148082103F045BAC1
:1019F000002802400268034B9A4201D102F03EBA2D
:101A0000704700BF001000407047000082B00E4BCE
:101A100000220092596C41F480415964596C01F4E0
:101A20008041009100990192196C41F08051196434
:101A30001B6C03F080530193019B0F216FF0010099
:101A400002B002F053BA00BF003802400268094BEE
:101A50009A4282B00BD100230193074B1A6B42F4D8
:101A600080521A631B6B03F480530193019B02B0F5
:101A7000704700BF003002400038024007B50F4BEE
:101A800002689A4216D10022A3F5F0430192196B25
:101A900041F4000119631B6B03F40003019305215A
:101AA0005A20019B02F022FA5A2003B05DF804EBA1
:101AB00002F04EBA03B05DF804FB00BF00B0024074
:101AC00010B5044688B01422002103A81AF094F837
:101AD0002268184B9A422AD103F54C430024019402
:101AE0005A6C154842F000625A645A6C02F0006267
:101AF0000192019A02941A6B42F400721A631B6BF2
:101B000003F4007302930422029B0223CDE9032312
:101B100003A90D230793CDE9054403F01BF85C20CE
:101B20002246052102F0E2F95C2002F011FA08B029
:101B300010BD00BF006C01400024024030B50446D7
:101B400089B01422002103A81AF056F822681A4B13
:101B50009A422FD1194C1A4800250195236B43F066
:101B600002032363236B03F002030193019B4FF4F1
:101B700040721223CDE9032301210323CDE905138C
:101B8000042303A9079302F0E5FF0295236C43F4B5
:101B900000132364236C03F400130293029B236A53
:101BA00043F400132362236A23F4001323626420A6
:101BB00002F076F909B030BD005400400038024010
:101BC0000004024008B502680A4B9A4210D10A4A42
:101BD0000A48136C23F4001313644FF4807103F06C
:101BE0009FF8BDE8084005484FF4007103F098B82D
:101BF00008BD00BF0054004000380240000402400D
:101C000010B5044690B03C22002101A819F0F4FF61
:101C10002268134B9A4221D1082301934FF4B473E5
:101C200005930024062301A808930B9404F070FB8D
:101C300008B1FFF7E9FE0B4B00945A6C42F080624A
:101C40005A645B6C03F080630093582000220521E6
:101C5000009B02F04BF9582002F07AF910B010BD49
:101C60000068014000380240F0B5044689B01422F3
:101C7000002103A819F0C0FF2268244B9A4243D1E7
:101C8000234B2448002400949A6B42F002029A638A
:101C90009A6B02F002020092009A01941A6B42F0D1
:101CA00002021A631A6B02F002020192019A029474
:101CB0001A6B42F020021A631B6B059403F0200399
:101CC000029302260325029B0A27402303A9CDE99C
:101CD0000336CDE9065702F03DFF4FF49863CDE996
:101CE00003360D48092303A90793CDE9054502F002
:101CF00031FF4FF440730848079703A9CDE9033635
:101D0000CDE9054502F026FF09B0F0BD001000A0A6
:101D100000380240000402400014024008B5026886
:101D2000094B9A420FD1094A0948936B23F00203E9
:101D30009363402102F0F4FFBDE8084005484FF4EA
:101D4000F86102F0EDBF08BD001000A000380240AD
:101D50000004024000140240F0B5314B1C6887B00B
:101D6000002C5BD101221A602E4B00949A6B2E48F6
:101D700042F001029A639B6B039403F0010300930A
:101D8000022703260C25009B01A94FF68373CDE99A
:101D90000137CDE9046502F0DDFE48F23313234834
:101DA000059501A9CDE90137CDE9034602F0D2FE40
:101DB0004CF203731E48059501A9CDE90137CDE921
:101DC000034602F0C7FE40F2FF631A48059501A9D9
:101DD000CDE90137CDE9034602F0BCFE4FF63F03E3
:101DE0001548059501A9CDE90137CDE9034602F073
:101DF000B1FE4FF47F431148059501A9CDE90137A4
:101E0000CDE9034602F0A6FE0D230D48059501A974
:101E1000CDE90137CDE9034602F09CFE07B0F0BDE5
:101E20005813002000380240001002400018024001
:101E3000000C02400020024000140240001C02403E
:101E40000008024008B5174B1A6852BB01221A60FD
:101E5000154A1648936B23F0010393634FF6837181
:101E600002F05EFF124848F2331102F059FF1148A8
:101E70004CF2037102F054FF0F4840F2FF6102F090
:101E80004FFF0E484FF63F0102F04AFF0C484FF457
:101E90007F4102F045FFBDE808400A480D2102F0ED
:101EA0003FBF08BD5413002000380240001002401C
:101EB00000180240000C02400020024000140240C2
:101EC000001C02400008024030B5014689B00022E3
:101ED000362002F00BF8362002F03AF80025154BB8
:101EE00002951A6C144C42F010021A641B6C03F039
:101EF0001003029301A903A8029B04F0EBF904F07C
:101F0000D9F90E4B236040F2E733E36040000C4BFD
:101F1000B0FBF3F00138606020462561A56004F055
:101F2000ADFE20B9204604F063FD09B030BD0120AC
:101F3000FBE700BF003802403CA700200010004033
:101F400040420F007047FEE7FEE7FEE7FEE77047FE
:101F5000014804F08BBD00BF3CA70020014803F0FE
:101F6000C4BC00BFD0A50020014802F055B900BF95
:101F70007CA60020014802F054BB00BFB4A500209D
:101F80000120704708B519F0DDFD162303604FF0FE
:101F9000FF3008BD08B519F0D5FD16230360FEE734
:101FA00070B50E4614460025A54201DB204670BDE3
:101FB000AFF3008070550135F6E770B50E46144654
:101FC0000025A54201DB204670BD705DAFF30080A7
:101FD0000135F6E74FF0FF3070474FF400534B6088
:101FE00000207047012070470020704708B50A4B59
:101FF0001968024609B90949196018686946024416
:102000008A4206D919F09EFD0C2303604FF0FF3081
:1020100008BD1A60FCE700BF5C13002028A8002060
:10202000704710B50421044619F02CFD204610BD60
:10203000012908B506D0022908D059B900F052FE8E
:10204000006808BD00F04EFE4068FAE700F04AFE66
:102050008068F6E70020F4E70048704730D30108B5
:102060000220704713B5002451B1036801948DF824
:10207000034001AA9C680DF10303A04702B010BD04
:102080000846FBE740897047808970478088704721
:1020900083798088184480B27047C07900F07F004F
:1020A0007047C079C0097047704710B508210446D1
:1020B00019F0E8FC204610BD704700F596730868DB
:1020C000496803C370477047704741607047704765
:1020D0000123037270477047704710B4C2684168AB
:1020E0005410034601EB6200D20748BF0A599B68AF
:1020F0005DF8044B48BFD358184743682BB1836839
:102100002BB9C06800F001007047184670470120E5
:10211000704710B50C21044619F0B4FC204610BDE0
:1021200010B51021044619F0ADFC204610BD10B5C5
:102130004FF4AC71044619F0A5FC204610BD10B553
:102140000AF070FC0368BDE810401B6B184710B51F
:102150000446D0F83C0158B10368DB68984738B1B1
:10216000D4F83C0103689B6898470023C4F83C31CD
:1021700010BD0000F8B5044617460E460AF072FC82
:10218000104B0025C4E954760F4E1C60C4E952552B
:102190000E4B306823600E4BC4E950350368294666
:1021A0009B68C4E94E559847284600F04FFD3368B8
:1021B00093F876200AB1D86C00B9986812F00DFB3C
:1021C0002046F8BD04A30020B8A20020A8D601082C
:1021D00090D60108064BC0F848310023C0F84C31B6
:1021E00000F5A073C0F84401C0F83C31704700BF4F
:1021F000352300082DE9F84F07469068DDF828A040
:10220000994603681B6A884614469847B0F53C7F98
:1022100005D2424B424AA321424819F061FC606852
:1022200003681B6A98470F2803D83F4B3C4AA421F8
:10223000F2E7E06803681B6A98470B2803D83B4B1A
:10224000374AA521E8E70AF0EDFB0AF0F1FBD9F8DF
:10225000000010B10368DB689847D9F8000010B19E
:1022600003681B689847386810B103685B69984732
:10227000D8F8000010B103685B689847386810B15F
:1022800003681B689847D8F8000010B103689B6882
:102290009847E068036800215B6A98474FF0000B9D
:1022A000234B03600546C0F804B080F808B0A0686E
:1022B000036859465B6A9847064600F0D1FD60689E
:1022C000036859465B6A98473146044600F06CFD46
:1022D000C9F80050C8F800403E60E4B1231DCAF8B8
:1022E00000303368C4F808A03046DB68F4639847D0
:1022F000236820461B689847294630460BF05EFF4E
:102300002B6828461B6998472B6828465B699847C5
:102310002046BDE8F88F2346E1E700BF68D30108F7
:10232000F6D30108FAD4010841D50108E4D5010823
:10233000ECD6010807B5D0F854310093D0F85021FD
:10234000044B00F59C710448FFF754FF03B05DF89F
:1023500004FB00BFF8A20020F4A20020006A70472E
:10236000406A704770478B8880690A68DB0A50F8BA
:1023700023001044704710B5C2B1137BB3B1547B36
:10238000D27A240204F4E0641443C26998B202EBE6
:10239000840213888B4202D192F9020010BD05D845
:1023A000013880B204320028F3D1F7E70020F5E7C6
:1023B00010B52821044619F065FB204610BD000029
:1023C00030B589B00446BDF850500695BDF84C5064
:1023D00005959DF8405004959DF83C5003959DF857
:1023E000385002959DF8345001959DF83050009575
:1023F0000BF044FB064B2360119BA361129BE3612E
:10240000159B2362169B6362204609B030BD00BF56
:1024100010D701080020704781807047C180704745
:10242000018170474181704770477047704770471E
:10243000704710B4C4880368121B84881B6D091B85
:1024400012B25DF8044B09B218474FF6FF7383814F
:102450004FF0FF3303621368C36110607047704729
:10246000704770477047704790F825201AB190F870
:10247000242002B11860704770477047704770475A
:10248000704730B4C26844685510034604EB6200DC
:10249000D20748BF62599B6830BC48BFD358184721
:1024A00043682BB183682BB9C06800F00100704706
:1024B000184670470120704710B51021044619F0E6
:1024C000E1FA204610BD10B54FF43B71044619F0F7
:1024D000D9FA204610BD00F19802914202D103685A
:1024E000DB6A184700F1E002914202D103681B6BDE
:1024F000F7E7704770B503680446DB6A15469847EE
:102500002368294620461B6BBDE87040184770B50C
:1025100004461D46BDF91060FFF7ECFF236829460D
:1025200020465B6B98472368314620469B6BBDE88D
:1025300070401847094A02604FF48071002281847C
:10254000FF21C0E90122C0E90322C0E90522C0E958
:10255000072280F826108262704700BF08E9010850
:1025600073B5018F4FF6FF739942064633D01C4B6B
:102570001B682BB91B4B1C4AAE211C4819F0B0FA42
:102580001B4A12888A4203D81A4B174AAF21F4E734
:1025900013F81120184B1B6853F82250174B18687A
:1025A00000F090FB2B68019001469B6A28469847F3
:1025B0002B6801991B6C0446284698472B680199A3
:1025C0005B6A14FB00F428469847E4B2044486F89A
:1025D000454002B070BD002380F84530F9E700BFE8
:1025E00008A3002060D70108A2D70108D0D70108AE
:1025F0000CA3002017D8010810A3002014A300206A
:102600004FF4807181840B4901600B4981624FF660
:10261000FF71002281854FF47F01C0E90122C0E9EA
:102620000322C0E90522C0E9072202634163028751
:10263000704700BF60E8010860D301082DE9F04F42
:102640002DED088B044689B0A24600250BF00AFC4C
:10265000DD4BE5634AF8403B5046FFF76BFF04F162
:102660006C03184604F1980909EE903A04F1E00869
:10267000FFF760FF484608F0FDFC404608F0FAFC12
:1026800004F5947318460AEE103AFFF753FF04F569
:10269000AA7318460AEE903AFFF74CFF04F5C07390
:1026A000184608EE103AFFF7ABFF04F5DE73184644
:1026B00008EE903AC54EFFF7A3FF04F5FE73C4F889
:1026C000BC611846C4F8F8510BEE103AFFF732FF20
:1026D00004F50A7318460BEE903AFFF72BFF04F54A
:1026E0001573184604F5247B09EE103AFFF788FFAE
:1026F0005846FFF785FFB64BC4F89062C4E9B7347B
:10270000B44BC4F8CC52C4E9B9354FF4F07300931C
:102710002A464FF4487329465046FFF7F8FE4FF01B
:102720007F43A3664FF4FD7319EE900A00936FF098
:102730000C024FF44F736FF01301FFF7E8FEA64B46
:10274000C4F89430D22240F23B114846FFF7D2FE43
:10275000012706AA05A94846ADF81870ADF814502F
:1027600008F0E7F94846A4F8D050FFF7F9FE4FF01B
:10277000FF3604F53773C4F8C03040F271128B2174
:102780004046C4E935660393FFF7B4FE06AA05A9DF
:102790004046ADF81870ADF8145008F0CAF9A4F826
:1027A00018714046FFF7DCFE3227039BC4F808315E
:1027B0001AEE100A3B464FF4BB7240F25B21C4E9AB
:1027C00047660097FFF7A3FE1AEE900A7A234FF4AC
:1027D000BB7240F2E111C4F850610097FFF797FE19
:1027E0007E4BC4F87C3140F2831218EE100A4FF48D
:1027F000F971FFF77FFE4FF07F43C4F8B031784B9B
:10280000069318EE100A022306A9A4F8B451ADF8F5
:102810001C3008F04BF91923009318EE900A262378
:1028200040F2831240F26121FFF771FE4FF07F43C7
:10283000C4F8EC3104F5347303936A4BA4F8F051F7
:102840001B682BB9684B694AAE21694819F048F9F1
:10285000684B1B88032B03D8674B644AAF21F4E70E
:10286000664B0321186800F02DFA654A03460321E0
:1028700003980CF0CBFF039A594BC4F8F82118EEDB
:10288000900A069306A90423ADF81C3008F00EF94F
:102890001BEE100A7A23472240F2E1110097FFF75E
:1028A00036FE4E4AC4F824223B461BEE900A4722CD
:1028B00040F25B210097FFF72AFE19EE100AC4F8D8
:1028C000506254224FF4F971FFF714FE4FF07F422B
:1028D000052319EE100AC4F88422A4F8885206A928
:1028E0003F4EADF81C30069608F0E0F81922009231
:1028F0002623542240F261215846FFF708FE4FF08C
:102900007F42C4F8C022374AA4F8C452136804F2C4
:10291000D625002B96D0374A1388062B9CD9374BE7
:102920000621186800F0CEF9354A034603212846EF
:102930000CF06CFF0723C4F8CC5206A9251D58469D
:10294000ADF81C30069608F0B1F85146284606F05E
:102950009FFC19EE901A284606F09AFC4946284634
:1029600006F096FC4146284606F092FC1AEE101A34
:10297000284606F08DFC1AEE901A284606F088FCD0
:1029800018EE101A284606F083FC18EE901A284616
:1029900006F07EFC1BEE101A284606F079FC1BEEB2
:1029A000901A284606F074FC19EE101A284606F014
:1029B0006FFC2846594606F06BFC204609B0BDEC7A
:1029C000088BBDE8F08F00BF8CD8010804EA01082D
:1029D00074D80108D7240008188505FF999999FF34
:1029E00060D3010808A3002060D70108A2D701081E
:1029F000D0D701080CA3002017D8010814A3002089
:102A000069D801087047000030B5154D2C78BFF328
:102A10005B8F14F001048DB01ED1284619F034F8F4
:102A2000D0B13F2307930F4B06930F4B0F4910482C
:102A300008940122CDE904430423CDE90132CDE914
:102A400009440A2303940094FFF7BAFC284619F0BE
:102A500027F8084819F062F805480DB030BD00BFEE
:102A6000601300207C0202088802020830480190AE
:102A700064130020052A00087047000030B5154D8A
:102A80002C78BFF35B8F14F001048DB01ED1284663
:102A900018F0FAFFD0B1104B0693104B05930123A9
:102AA000CDE9034302930423CDE900330C490D48DB
:102AB00014231E22CDE90944CDE90744FFF780FC29
:102AC000284618F0EDFF084819F028F805480DB021
:102AD00030BD00BF8C130020800202088C02020867
:102AE0004048019090130020792A000870470000A8
:102AF00030B5154D2C78BFF35B8F14F001048DB009
:102B00001ED1284618F0C0FFD0B13F2307930F4BCA
:102B100006930F4B0F49104808940122CDE9044356
:102B20000423CDE90132CDE909442823039400941C
:102B3000FFF746FC284618F0B3FF084818F0EEFFF0
:102B400005480DB030BD00BFB81300208402020854
:102B500090020208E4490190BC130020ED2A00080D
:102B600000207047002070470EB403B503AB00216E
:102B700053F8042B01930AF0B7FD02B05DF804EBA3
:102B800003B070470CB407B504AB53F8042B0193A2
:102B90000AF0AAFD03B05DF804EB02B07047000034
:102BA000436C10B5044673B3038F2BB9184B194A05
:102BB000C021194818F094FFC38E00EB43035B8CCF
:102BC0000BB30CF069F8238F012B03D8134B144A75
:102BD000C521EEE7E28E531C9BB2092B194688BF34
:102BE000A3F10A0104EB410140F63F10498C8142F8
:102BF00009D10A2B04EB420228BF002304EB430354
:102C0000508C588451842046BDE810400BF028BFFA
:102C1000C0D80108C9D8010874D90108BED9010873
:102C2000CCD901080BF0D4BE10B586B002AC84E854
:102C300006001A460AAB05930193099B00932146AF
:102C4000089B09F066FA06B010BD000038B518BB45
:102C5000124B13481B681349B3B11A689C681A4495
:102C600002605A681A440A601C440F4B00221A8002
:102C700000F038F8054600F033F80C4B1C600C4BA4
:102C80001D600C4B188007E00B4B03600B4B0B6077
:102C90000B4B1C68002CE8D138BD00BFE4130020AA
:102CA000E8130020EC130020F013002008A30020FC
:102CB00010A300200CA30020144A0190F4490190B5
:102CC000804A0190044B1B6853F82100034B1B689A
:102CD00003EB4000704700BFEC130020E813002016
:102CE0000820704700487047F413002010B5FFF724
:102CF000C5FE044C2060FFF7FBFE6060FFF784FE1A
:102D0000A06010BDF4130020704710B54FF4AC71F3
:102D1000044618F0B7FE204610BD10B50446D0F8A2
:102D2000540100F013F82046BDE8104009F04EBDF4
:102D300010B50446FFF71EFA014B2360204610BD74
:102D4000A8DA0108002202607047000010B5064CA6
:102D50002368012B07D10068044A036811689B6847
:102D600098470023236010BD4C130020501300200F
:102D7000FEF73ABE7047043870477047C068036872
:102D80005B6B1847A0F10400FFF7F8BF10B51021E6
:102D9000044618F077FE204610BDA0F10400F5E7C8
:102DA0008068FFF7E5BF000010B500228260044A8A
:102DB000C16002F1080428320460426010BD00BF07
:102DC000E4DA010870477047FFF759BB10B50446B5
:102DD000C06B03681B69984794F8EC32074A0133CB
:102DE000DBB284F8EC3204F5347003210CF00EFDF4
:102DF00004F5DE70BDE810400AF097BD18DB01084D
:102E000010B5D0F8943080F8ED1203F2D2430446A6
:102E1000C0F89430084ACBB200F2D62003210CF05F
:102E2000F5FC04F524700AF080FD04F16C00BDE8A7
:102E300010400AF07ABD00BF18DB0108D0F89430CA
:102E400003F2D243C0F894306C300AF06EBD10B576
:102E50004FF43C71044618F015FE204610BD0000EA
:102E600010B50446FFF7EAFB034B23600023A4F8E8
:102E7000EC32204610BD00BF24DB01087047002063
:102E8000704710B5044600F07DFBA821E0B200F0C9
:102E900093FB80B210BD000013B500240221C0B224
:102EA0008DF8074000F088FB8DF807009DF807308B
:102EB00003F00F038DF807309DF80730022B88BF11
:102EC0008DF80740044B9DF807209DF807005A70C5
:102ED00000229A7002B010BD0214002073B5154C88
:102EE0001546A37862789A420E461FD903B3012B88
:102EF00014BF0021092104230DEB0302C0B200F02E
:102F000077FB9DF804309DF805201B0203F47063E5
:102F1000134333809DF806309DF807201B0203F40D
:102F2000706313432B80A3780133A37002B070BD8C
:102F30000321E0E7021400200122A421C0B200F026
:102F400023BB0022A421C0B200F01EBBFFF7F9BFD3
:102F50007047000010B4094B1A7890420AD0597893
:102F6000884207D00AB129B9012298545DF8044B70
:102F700000F008BB5DF8044B704700BF0014002050
:102F800038B504460D460020CB49FDF75BFDCB4923
:102F90000320FDF757FDCA490020FDF753FDC9493D
:102FA0000220FDF74FFDC6490020FDF74BFDC64945
:102FB0000020FDF747FD0A2000F030FBC349002048
:102FC000FDF740FDC2490020FDF73CFD0A2000F05E
:102FD00025FBC0490020FDF735FDBF490020FDF766
:102FE00031FDBE490020FDF72DFDBD490020FDF754
:102FF00029FDBC490020FDF725FDBB490020FDF758
:1030000021FDAD490020FDF71DFDB8490020FDF769
:1030100019FDB7490020FDF715FDB6490020FDF761
:1030200011FDB5490020FDF70DFDB4490020FDF765
:1030300009FDB3490020FDF705FDB2490020FDF769
:1030400001FDB1490020FDF7FDFCA5490020FDF779
:10305000F9FC99490020FDF7F5FCAC490220FDF789
:10306000F1FCAB490020FDF7EDFCAA490020FDF77B
:10307000E9FCA9490020FDF7E5FCA8490020FDF77F
:10308000E1FCA7490020FDF7DDFCA6490020FDF783
:10309000D9FC97490020FDF7D5FCA3490020FDF796
:1030A000D1FC95490020FDF7CDFCA0490020FDF79B
:1030B000C9FC9F490020FDF7C5FC9E490220FDF791
:1030C000C1FC7F490020FDF7BDFC9B490620FDF7B0
:1030D000B9FC9A490020FDF7B5FC99490E20FDF78F
:1030E000B1FC98490020FDF7ADFC97490E20FDF793
:1030F000A9FC96490020FDF7A5FC95490A20FDF79B
:10310000A1FC94490020FDF79DFC93490020FDF7A8
:1031100099FC6B490020FDF795FC90490A20FDF7CA
:1031200091FC8F490020FDF78DFC8E490F20FDF7A3
:1031300089FC82490020FDF785FC8B490F20FDF7B3
:1031400081FC80490020FDF77DFC88490A20FDF7BD
:1031500079FC7E490020FDF775FC85490F20FDF7BD
:1031600071FC7C490020FDF76DFC82490F20FDF7C2
:1031700069FC81490020FDF765FC80490A20FDF7C4
:1031800061FC7F490020FDF75DFC7E490A20FDF7C8
:1031900059FC4B490020FDF755FC7B490A20FDF7FF
:1031A00051FC6F490020FDF74DFC78490F20FDF7D9
:1031B00049FC62490020FDF745FC75490F20FDF7E9
:1031C00041FC60490020FDF73DFC72490A20FDF7F3
:1031D00039FC5E490020FDF735FC6F490F20FDF7F3
:1031E00031FC5C490020FDF72DFC6C490F20FDF7F8
:1031F00029FC3F490020FDF725FC69490020FDF727
:1032000021FC68490020FDF71DFC67490020FDF7FF
:1032100019FC66490020FDF715FC65490020FDF703
:1032200011FC25490020FDF70DFC62490320FDF744
:1032300009FC21490020FDF705FC1F490020FDF78E
:1032400001FC5D491020FDF7FDFB1B490020FDF747
:10325000F9FB5A491020FDF7F5FB00205849FDF70E
:10326000F1FB782000F0DAF9002C00F0C980022C84
:1032700003D154490020FDF7E5FB012D0BD1524944
:103280000020FDF7DFFB51490420FDF7DBFB50492F
:103290000420FDF7D7FB4F490020FDF7D3FB4E4933
:1032A0000020FDF7CFFB4D490020FDF7CBFB4C493B
:1032B0000020FDF7C7FB95E05CDB0108C2DB0108DD
:1032C00072DB010848DC010888DB01089EDB01088D
:1032D000B4DB0108BADB0108BCDB0108BEDB010876
:1032E000C0DB01085EDB010860DB010862DB01086E
:1032F00064DB010866DB010868DB01086ADB0108A2
:103300006CDB01086EDB010870DB0108C6DC01081C
:1033100074DB010876DB010878DB01087ADB010841
:103320007CDB01087EDB010880DB010882DB010811
:1033300084DB0108C9DC0108CCDC010886DB01085C
:10334000D3DC01088ADB0108E2DC01088CDB010820
:10335000C6DB01088EDB0108ACDB0108D1DB01080C
:1033600090DB0108DCDB0108ECDB0108FCDB010879
:1033700007DC010817DC010892DB010827DC0108E3
:1033800094DB010832DC01083DDC01084BDC01085C
:103390005BDC01086BDC010876DC010886DC0108D7
:1033A000AEDB0108B0DB0108B2DB0108B6DB0108C7
:1033B000B8DB010896DC0108A4DC0108B5DC0108D3
:1033C00096DB010898DB01089CDB01089ADC010808
:1033D0009FDC0108A0DB0108A2DB0108A4DB0108D7
:1033E000A6DB010808490020FDF72CFB0749002057
:1033F000FDF728FB06490020FDF724FB002038BD1F
:103400000449204637E700BFA8DB01085CDB010860
:10341000AADB01089ADB010870B52E4D88B028465A
:1034200002F06AF90446002851D12B4A2B4B2C4E4E
:103430000190C5E900234FF48043C5E90200C5E9C6
:103440000430C5E906002862336B43F0020333639E
:10345000336B059003F002030193019B4FF48071DD
:103460001223CDE9031302200423CDE9060303A9A7
:103470001C4801F06FFB4FF400731A48039303A933
:1034800001F068FB0294336C43F400133364336C33
:1034900003F400130293029B336A43F40013336274
:1034A000336A23F400133362224605211F2000F003
:1034B0001DFD1F2000F04CFD22460521202000F0BC
:1034C00015FD202000F044FD284601F0BBFE08B0A9
:1034D00070BD00BF0814002000540040801A060090
:1034E000003802400004024008B5034801F052FFD2
:1034F000BDE80840FFF790BF0814002010B586B063
:10350000194B002400941A6B42F001021A631B6BE2
:1035100003F001030093009B69B90123CDE9013158
:1035200002230493114B039153F8200001A901F0E9
:1035300011FB06B010BD0129FBD1022304934FF407
:1035400088130293094B019153F82000039401A9B9
:1035500001F000FB22460F21062000F0C7FC0620E8
:1035600000F0F6FCE5E700BF00380240480000200C
:1035700008B5034B012153F8200001F073FC08BD8E
:1035800048000020FFF748BF7FB501238DF81720C2
:103590006422CDE901320DF1170200920A4601467C
:1035A000044801F011FF08B1FFF79EFF07B05DF876
:1035B00004FB00BF081400207FB500230A468DF8E5
:1035C00017304FF47A710123CDE901310DF1170164
:1035D00000910146054801F087FF08B1FFF784FF1D
:1035E0009DF8170007B05DF804FB00BF0814002029
:1035F0001FB54FF47A74CDE90134009201230A46D5
:103600000146054801F070FF044608B1FFF76CFF62
:10361000A0B204B010BD00BF0814002000F040BCF0
:1036200000B595B04FF480720C924FF08071052276
:1036300006920F9100220121CDE90312CDE90D225E
:10364000CDE911220B9213920092102202924FF4B4
:10365000800203460191059206A96A46044802F0D9
:10366000CEFB003818BF012015B05DF804FB00BF89
:1036700084A7002000B595B04FF480730C93062307
:1036800006931748002341F2883206A9CDE90D338D
:10369000CDE911330F930B93139302F06CFBE0B958
:1036A0000223CDE9003301221023CDE902324FF489
:1036B00080010523CDE905134FF0807304900F932B
:1036C000074841F288336A4606A902F098FB0038A1
:1036D00018BF012015B05DF804FB0120FAE700BF18
:1036E00084A7002000B591B04FF480730893EB23BA
:1036F00002934FF4406309934FF4005305934FF046
:1037000040720023CDE90A320A22079202A96A46D2
:1037100006480F93CDE90D33019302F0C0FB00384A
:1037200018BF012011B05DF804FB00BF84A7002082
:1037300070B588B02C4B2D48002400949A6B42F051
:1037400002029A639A6B02F002020092009A9A694E
:1037500042F002029A619A6922F002029A6101948F
:103760001A6B42F002021A631A6B02F00202019213
:10377000019A02941A6B42F020021A631B6B03F049
:10378000200302934022029B0223CDE9032301215F
:103790000323CDE905130A2603A90925079601F09D
:1037A000D9F94FF4806303A9114803930594079551
:1037B00001F0D0F94FF4407303A90D480393079625
:1037C00001F0C8F9C02303A909480393079501F044
:1037D000C1F922460F215B2000F088FB5B2000F03E
:1037E000B7FB08B070BD00BF0038024000040240C3
:1037F00000140240F0B5484C484B236091B020467D
:1038000002F0A6FA054610B1012011B0F0BD014644
:103810002046FFF78DFF01261023C4E90166E3600F
:103820004FF0807797FAA7F3B3FA83F3013B236154
:1038300020464FF48063C4E90535C4E9075502F01A
:1038400033FA0028E0D1CDE90900CDE90D004FF4AD
:10385000807566230B9007900F9041F2883202A981
:1038600020460895029302F086FA08B10420CCE7BE
:10387000992341F2883202A92046029302F07BFA92
:103880000028F3D141F28830FFF7CAFE0028EDD1BD
:10389000CDE90900CDE90C60CDE90E008523079044
:1038A00041F2883202A92046089502930B9702F054
:1038B00062FA0028DAD141F288320DF10701204680
:1038C00002F0CCFB0028D1D1FFF7D4FE0028CDD1E7
:1038D00081230293F02292FAA2F29DF807300A2186
:1038E000B2FA82F201FA02F203F00F03134302A9C3
:1038F00041F2883220468DF8073002F03CFA002869
:10390000B4D141F288320DF10701204602F04AFBA2
:1039100000283FF47AAFA9E784A70020001000A098
:1039200008B55B2000F022FB1448402101F0F8F9B3
:1039300013484FF4806101F0F3F911484FF480719E
:1039400001F0EEF90E484FF4007101F0E9F90C486E
:10395000802101F0E5F90A48402101F0E1F9094B25
:103960009A6942F002029A619A6922F002029A610F
:103970009A6B22F002029A6308BD00BF0004024065
:10398000001402400038024038B5084D084B2B6047
:10399000284602F0DDF9044628B901462846FFF71B
:1039A000BFFF204638BD0124FBE700BF84A70020ED
:1039B000001000A02DE9F743214C224D01264FF0C5
:1039C00000081027214681464FF6FF722846C4E9B9
:1039D0000067C4E90268CDF8048002F0DFFF3046DA
:1039E00000F05EFA022321464FF6FF722846C4E932
:1039F0000037C4E9026802F0D1FF0323C4E90037AD
:103A0000214608234FF6FF722846C4E9023802F027
:103A1000C5FF4FF40C7301930423C4E9003721461A
:103A2000019BA6604FF6FF722846E36002F0B6FFE6
:103A30004946284603B0BDE8F04302F0C6BF00BFC8
:103A40005C1400204815002070B506468EB0002892
:103A500000F0BD805F4B6048604C002500959A6B7C
:103A600042F001029A639A6B02F001020092009AFE
:103A700001951A6B42F480021A631A6B02F48002F9
:103A80000192019A02951A6B42F004021A631A6BB2
:103A900002F004020292029A03951A6B42F00802A5
:103AA0001A631A6B02F008020392039A04951A6BC8
:103AB00042F010021A631A6B02F010020492049A88
:103AC00005951A6B42F020021A631A6B02F020026D
:103AD0000592059A06951A6B42F040021A631A6B1A
:103AE00002F040020692069A07951A6B42F0800295
:103AF0001A631A6B02F080020792079A08951A6BF4
:103B000042F480721A631B6B03F4807308930222E1
:103B1000089B0C920123CDE90A2309A90C220D92DE
:103B2000099301F017F84CF203732D48099309A982
:103B300001F010F84FF683732A48099309A901F0A0
:103B400009F84FF63F032848099309A901F002F844
:103B500048F233132548099309A900F0FBFF4FF6FB
:103B60000C732348099309A900F0F4FF40F2FF63A6
:103B70002048099309A900F0EDFF80224FF400735B
:103B8000C4E902234FF480614FF48053C4E9041365
:103B90004FF48043C4E906354FF40033C4E90835D7
:103BA0000323C4E90A352563134B3463204623609D
:103BB0006560A66300F094FA204600F011FA382000
:103BC0002A46052100F092F9382000F0C1F90EB024
:103BD00070BD00BF00380240000802408814002079
:103BE000000C024000100240001402400018024085
:103BF000001C0240002002401064024038B5194CFD
:103C0000194D1A4B2360072102230422C5E9003114
:103C1000C5E90221C5E90433AB61E26040232022FB
:103C2000C4E9042300214FF4C073C4E906314FF402
:103C300000604FF48053C4E908032046C4E9011131
:103C4000A162FFF701FF2946204602F079FE084CE9
:103C5000003818BF0120207040F26950FFF7AAFE1B
:103C6000207838BD481500206C140020400100A0C9
:103C70004C00002008B548B1382000F077F904481E
:103C8000044B0360BDE8084000F02ABA08BD00BF3D
:103C9000E81400201064024038B5074C074B23603D
:103CA000204602F06DFE064D014618B928702046E8
:103CB000FFF7E0FF287838BD48150020400100A03C
:103CC0004D0000202DE9F843194DDFF870802B6876
:103CD000044698F800000F4698476B6854209847B0
:103CE000C0B211284646A9460BD06B687020984791
:103CF000C0B27023112888F8003005D00320BDE839
:103D0000F883542388F800300A4B0B4D3078C5F8FF
:103D10000090BC4234BF01210C211970D9F8083041
:103D200098472B683078DB6898470020E7E700BFAA
:103D30002000002094150020901500207C15002004
:103D40002DE9F04F344C354D236885B006461B698C
:103D500028789847A1463070019558B1DFF8C8809F
:103D60002F4F06F1020B03AD02A94FF0000A337882
:103D7000534503D8002005B0BDE8F08FD9F80030D6
:103D800001985B69007800912A469847254B009975
:103D90001B7813F0080F1FBF0A88288808802A8024
:103DA0009A0741BF0A88C2F5477203320A805B074F
:103DB00048BF2B88D8F8002031F8020B42BFC3F56A
:103DC000EF7301332B8093B290428CBFC31A1B1A3E
:103DD0009BB235F8022B00933B689CB29A4288BF95
:103DE000141B009B98BFA41AA4B21C44C446052C03
:103DF000C8BFC8F80000DCF80030C8BF3A60BE4653
:103E00002BF8023BDEF80030ABF8023008F1040872
:103E100004370AF1010AAAE7901500207C1500205A
:103E2000881500209415002080150020054BD3F83C
:103E3000882042F47002C3F888204FF000629A6034
:103E4000704700BF00ED00E008B50B4B1A6842F464
:103E500000721A601A6842F480621A601A6842F4AA
:103E600080721A60032000F02FF80020FEF72CF873
:103E7000FDF7CCFD002008BD003C0240034A044B86
:103E800011681B780B441360704700BFD0A7002057
:103E900054000020014B1868704700BFD0A70020D5
:103EA00038B50446FFF7F6FF631C1CBF054B1B78B3
:103EB000054618BFE418FFF7EDFF431BA342FAD3F2
:103EC00038BD00BF540000200749CA6822F4E062F0
:103ED0000302120403F4E063120C134343F0BF63C4
:103EE00043F40033CB60704700ED00E0164B30B573
:103EF000DC68C4F30224C4F10705231D042D28BF88
:103F00000425062B4FF0FF338CBF033C002403FA3B
:103F100005F521EA0501A34022EA0302A140002899
:103F200041EA0203ACBF00F16040084A4FEA0313C4
:103F3000B8BF00F00F00DBB2AABF00F56140135418
:103F400080F8003330BD00BF00ED00E014ED00E06C
:103F5000002808DB4209012300F01F0003FA00F0EB
:103F6000014B43F82200704700E100E000280DDB20
:103F70004309012200F01F0002FA00F02033044A36
:103F800042F82300BFF34F8FBFF36F8F704700BF1E
:103F900000E100E010B5044650B1437903F0FF02A0
:103FA00013B90271FDF752FD01236371002010BDAA
:103FB0000120FCE7036810B5084C0246D9B210395D
:103FC0001820B1FBF0F0205CD06523F47F7020F066
:103FD00003005F2988BF0430906510BD09DD01082A
:103FE00070B50446FFF756FF0546002C73D0022338
:103FF00084F835302268002384F83430136823F0C5
:104000000103136021680B68D8072FD40B68334D68
:10401000A0691D40D4E901231343E26813432269D8
:10402000134362691343E26903431343226A134350
:10403000626A042A43EA050302BFD4E90B563543FA
:104040002B430B604B69042A23F0070343EA020366
:1040500033D1A26AE56A13437DB390B9012A21D016
:1040600032F0020229D1EA0127D51EE0FFF712FF44
:10407000401B0528C6D920236365032084F835003A
:1040800070BDB0F5005F14D1032A16D801A050F816
:1040900022F000BFAB40000867400008AB400008BA
:1040A000A5400008B5F1C07F07D14023636501201A
:1040B000E4E7022AF9D9032AD5D04B612046FFF75D
:1040C00079FFE26D3F239340836000200123606508
:1040D00084F83530D4E70120D2E700BF3F8010F0EC
:1040E00038B5054620B390F83530022BDCB21DD030
:1040F00003681A6822F0010200241A6021221C6061
:104100005C609C60DC601C615A61FFF753FFEA6DE4
:104110003F239340C5E90F44C5E91144C5E9134461
:1041200083606C6585F8344085F83540204638BD9D
:104130000124FBE770B50446866DFFF7ABFE94F8EB
:104140003530022B054606D080236365002384F8B2
:104150003430012070BD23681A6822F016021A60FC
:104160005A6922F080025A61226C0AB9A26C1AB113
:104170001A6822F008021A601A6822F001021A6016
:1041800023681B6813F001030AD1E16D3F228A40C6
:10419000B260012284F8352084F834301846D9E71B
:1041A000FFF778FE401B0528EAD92023636503202A
:1041B000002384F8350084F83430CBE710B504468A
:1041C00030B390F8393003F0FF021BB980F8382083
:1041D000FDF754FC22686168022384F839301368C3
:1041E00023F440330B431360536BA16823F00703A0
:1041F0000B435363136CE16823F47F5323F03F03B5
:104200000B43136400200123E06384F8393010BDB0
:104210000120FCE770477047036870B55E681D6851
:10422000F207044614D5E90512D51A6822F4807203
:104230001A60C26B42F00102C26301229A60042339
:1042400080F83930002380F83830436903B198474B
:10425000B20616D5AB0414D523681A6822F40052AE
:104260001A6020229A60E36B43F00203E3630423A5
:1042700084F83930002384F8383063690BB1204664
:104280009847300716D5290514D523681A6822F4F3
:1042900000621A6008229A60E36B43F00403E36350
:1042A000042384F83930002384F8383063690BB173
:1042B0002046984772070BD56B0509D523681A6805
:1042C00022F480621A6004229A602046FFF7A2FF5F
:1042D000B00714D5A90512D523681A6822F4007214
:1042E0001A6002229A60E36BE363012384F8393099
:1042F000002384F8383023690BB120469847F20632
:1043000013D5EB0411D523681A6822F480521A6081
:1043100010229A60E36BE363012384F839300023B1
:1043200084F838302046FFF776FF70BDF0B590F87E
:104330003830012B4FF002032BD0012280F83930A6
:1043400080F8382000EB0113D3E907425D6A184F6B
:1043500044EA0242093C012C9CBF05F07F431A430A
:104360004FEA0116036888BF42EA056299B9596AA3
:1043700039400A435A62012C82699A6103D8426A21
:1043800022F07F429A62012380F83930002380F8BE
:1043900038301846F0BDD96939400A43DA618219CC
:1043A000012C92691A619CBF25F07F451D62EAE7E6
:1043B000F0FFFC002DE9F04107460D4614461E466D
:1043C000FFF768FD80463A68536FDB070AD544EA79
:1043D0000623069C43EA044444EA8514D46600207C
:1043E000BDE8F081FFF756FDA0EB0800B0F57A7F3D
:1043F000E9D90320F4E7037C012B5DD00368002298
:10440000C3F8C420C3F8C820CA0748BFD3F8C420E3
:10441000816142BF6FEA12426FEA0242C3F8C420D0
:104420008A0742BFD3F8C42042F4F812C3F8C4206C
:104430004A0742BFD3F8C82042F00102C3F8C8209F
:104440000A0742BFD3F8C82042F00202C3F8C820CE
:10445000CA0642BFD3F8C82042F00C02C3F8C820F5
:104460008A0642BFD3F8C82042F01002C3F8C82021
:104470004A0642BFD3F8C82042F02002C3F8C82041
:104480000A0642BFD3F8C82042F04002C3F8C82051
:10449000CA0542BFD3F8C82042F08002C3F8C82042
:1044A0008A0542BFD3F8C82042F4F852C3F8C820A6
:1044B00000230374184670470220704773B50D46F9
:1044C0000446002800F0A780437C0BB9FDF7F8FAFA
:1044D00003236374002300932368D3F8302442F04D
:1044E0008072C3F83024D3F8303403F08073009323
:1044F000009BFFF7CFFC06462268D2F80C34D904A3
:1045000078D5D2F8303423F45E3323F4FE73C2F846
:104510003034D5E90003DB0243EA8003A868D2F80F
:10452000301443EA00430B43C2F8303400230193B4
:10453000D2F8303443F00103C2F83034D2F83034CA
:1045400003F001030193019BFFF7A4FC06462368D7
:10455000D3F80C24D20557D5D3F8A0206168286879
:1045600042F00602C3F8A020D3F8942022F0030200
:10457000C3F89420D3F894200A4342F00102C3F810
:104580009420D3F8A420E16822F00302C3F8A42009
:10459000D3F8A4200A43C3F8A4209A68A16822F0A3
:1045A000FF029A609A680A439A606A68012A38BFD3
:1045B00001221146194A4A43A96801F003018A40C1
:1045C0004FF4FA514143B2FBF1F2D3F8181421F041
:1045D0003F01C3F81814D3F8181400200A43C3F895
:1045E0001824C3F8C400C3F8C80001236061A061A7
:1045F000637407E0FFF74EFC801BB0F57A7F7FF60F
:104600007BAF032002B070BDFFF744FC801BB0F508
:104610007A7F9CD9F5E70120F4E700BF00093D004F
:1046200070470368D3F80C24D10710B5044608D5A9
:10463000D3F80824D20704D50122C3F81024FCF7CC
:1046400055FA2368D3F80C24910709D5D3F8082428
:10465000920705D50222C3F810242046FCF77AFA07
:10466000A369002B4ED02168D1F8BC20D1F8C4300A
:10467000D1F8C0001A40D1F8C83091B2034019B146
:10468000616941F00101616112F4F81F1EBF6269A6
:1046900042F002026261D80742BF626942F004023E
:1046A0006261990742BF626942F00802626113F0D9
:1046B0000C0F1EBF626942F010026261DA0642BF4F
:1046C000626942F020026261980642BF626942F06C
:1046D00040026261590642BF626942F08002626133
:1046E0001A0642BF626942F48072626113F4F85F95
:1046F0001EBF636943F400736361636913B12046AD
:10470000FFF78EFF10BD037C012B0BD003681A6BE3
:1047100022F003021A631A6B114319630023037416
:10472000184670470220704730B5037C012B6AD0D1
:1047300003680C685A6B42F001025A63D3F80024F4
:1047400022F00102C3F80024D3F8002442F0010251
:10475000C3F80024DA6822F00302DA60DA68224340
:10476000DA605A6922F007025A61D1E906522A43F7
:104770004D695C692A4322435A611A694D6822F0E7
:104780000F021A611C692C431C61D3F8004424F009
:104790000E04C3F80044D3F800248C6842EA4502B2
:1047A000C3F800245A6E120C12045A665A6E224341
:1047B0005A66D3F8002422F0F002C3F80024D1E9AD
:1047C00003252A434D6AD3F800442A430D6A896AB7
:1047D0002A432243C3F800249A6E22F001029A660B
:1047E0009A6E0A439A66D3F8082442F00102C3F88D
:1047F0000824D3F8082442F00202C3F80824002356
:104800000374184630BD0220FCE7000030B5037C7D
:10481000012B2AD00268164B946E23409366D1E98F
:1048200000352B438D68946E2B43CD682B430D6967
:104830002B434D692B438D692B43CD692B430D6A67
:104840002B434D6A2B438D6A2B43CD6A096B2B4357
:1048500023439366936E23F002039366936E0B4398
:10486000936600230374184630BD0220FCE700BFA6
:10487000FF80F0FE037C012B0BD00368DA6A22F084
:104880001F02DA62DA6A1143D96200230374184600
:1048900070470220704730B5037C012B35D0D1E939
:1048A00000240368944238BF1446D3F8982002F0DD
:1048B000FC22C3F89820D3F8982042EA044222430D
:1048C000C3F89820D3F89C2002F40042C3F89C203F
:1048D000D1E90225120642EA05420D69D3F89C404F
:1048E00049692A432243C3F89C20D3F8A42022F428
:1048F0007F42C3F8A420D3F8A42042EA0122C3F8DF
:10490000A42000230374184630BD0220FCE70000F9
:1049100030B5037C012B5CD003680C689A688D6805
:1049200022F47F429A609A6842EA04229A609A6F5F
:104930004C6892B29A679A6F42EA04429A679C6FF7
:10494000254A14409C679C6F2C439C67DC6FCD68A4
:104950001440DC67DC6F2C43DC67D3F880400D69C2
:104960001440C3F88040D3F880402C43C3F8804003
:10497000D3F884404D691440C3F88440D3F8844090
:104980002C43C3F88440D3F8844024F08074C3F8E7
:104990008440D3F884408D692C43C3F88440D3F815
:1049A0008840CD69096A1440C3F88840D3F888402C
:1049B0002C43C3F88840D3F88C402240C3F88C20A5
:1049C000D3F88C200A43C3F88C20002303741846C4
:1049D00030BD0220FCE700BF0000FFFF037C012B7D
:1049E00082B01CD0026800230093516841F001019D
:1049F0005160516801F00101009100990193D2F8D2
:104A0000041441F00801C2F80414D2F80424037419
:104A100002F008020192019A184602B07047022083
:104A2000FBE7037C012B1FBF0268D2F8043443F07C
:104A30000403C2F804341DBF002303741846022087
:104A4000704737B5057C012D044609D00125057452
:104A5000069D0095FFF7AEFC0023237403B030BD24
:104A60000220FBE72DE9F84F1C46037C012BDDE912
:104A70000A9806460F46154653D001230374FFF7E4
:104A800009FA83463268536F13F0010A1AD0032CD7
:104A900021464FF0000028BF032188421ED1231A6F
:104AA000C2F8709040441BBB013445EA87112502CF
:104AB000ADB224020D4304F47F042C43D46618469F
:104AC000337409E0FFF7E6F9A0EB0B00B0F57A7F4D
:104AD000D8D986F810A00320BDE8F88F18F8003068
:104AE00001304FEAC00C03FA0CF349EA0309D4E79A
:104AF000042B4FF0000C9E46614628BF4FF0040E79
:104B000010F801804FEAC109013108FA09F88E4511
:104B10004CEA080CF4D1C2F870C0A3EB0E03704449
:104B2000C1E70220D8E7037C012B10D00368D3F83B
:104B30001C2422F0C062C3F81C24D3F81C2442EACF
:104B40004161C3F81C140023037418467047022007
:104B5000704700002DE9F74FDFF8C0916D4A002340
:104B60000D6801249C4004EA050CAC4340F0B98078
:104B70004D6805F003044FEA43080326671E06FA52
:104B800008F6012F6FEA060634D8876807EA060E92
:104B9000CF6807FA08F747EA0E078760476827EAF1
:104BA0000C0EC5F300179F4047EA0E074760C76821
:104BB00007EA060E8F6807FA08F747EA0E07022C85
:104BC000C76019D14FEAD30A00EB8A0A03F0070B3A
:104BD000DAF820704FEA8B0B4FF00F0E0EFA0BFE37
:104BE00027EA0E0E0F6907FA0BF747EA0E07CAF815
:104BF000207001E0032CDAD1076804FA08F43E4083
:104C0000264315F4403F06606BD04FF0000ACDF804
:104C100004A0D9F84460404C46F48046C9F844608A
:104C2000D9F8446006F480460196019E23F00306FD
:104C300006F1804606F59C3603F0030ED6F8088090
:104C40004FEA8E0E0F2707FA0EF7A04228EA070751
:104C50004ED004F58064A0424CD004F58064A0429C
:104C60004AD004F58064A04248D004F58064A04294
:104C700046D004F58064A04244D004F58064A0428C
:104C800042D004F58064A04240D004F58064A04284
:104C90003ED004F58064A0420CBF09240A2404FA23
:104CA0000EF43C43B46014686FEA0C06EF0354BF83
:104CB00034404CEA040414605468AF0354BF3440D9
:104CC0004CEA040454609468EF0254BF34404CEA48
:104CD00004049460D468AD0254BF34404CEA040428
:104CE000D4600133102B7FF43BAF03B0BDE8F08FED
:104CF0005446D4E70124D2E70224D0E70324CEE7C8
:104D00000424CCE70524CAE70624C8E70724C6E73D
:104D10000824C4E7003C0140000002400038024083
:104D20002DE9F04F4A4CDFF83091DFF830A1DFF881
:104D300030B10022012303FA02FE3EEA01030EEA2B
:104D400001076ED122F0030505F1804505F59C357C
:104D5000404BD5F8088002F0030C4FEA8C0C0F266C
:104D600006FA0CF6984206EA08085FD003F580635D
:104D700098425DD003F5806398425BD003F5806371
:104D8000984259D003F58063984257D0484557D090
:104D9000504557D0584557D003F58053984255D0C9
:104DA00003F5806398420CBF09230A2303FA0CF32E
:104DB000434513D1236823EA07032360636823EA8A
:104DC00007036360A36823EA0703A360E36823EA99
:104DD0000707E760AB6823EA0606AE6005680326AE
:104DE000530006FA03F325EA0305056022FA06F5E7
:104DF00000EB850502F0070C2E6A4FEA8C0C0F279A
:104E000007FA0CF726EA07072F62C56825EA0305AB
:104E1000C560456825EA0E054560856825EA0303F7
:104E200083600132102A85D1BDE8F08F0023BDE7F1
:104E30000123BBE70223B9E70323B7E70423B5E760
:104E40000523B3E70623B1E70723AFE70823ADE760
:104E5000003C0140000002400014024000180240E3
:104E6000001C02400369194214BF01200020704752
:104E70000AB1816170470904FBE7436901EA030253
:104E800021EA030141EA02418161704701684B69EF
:104E900013F480634FF0000210D06FF480634B6115
:104EA0002023026380F83D3080F83E20036C80F8B8
:104EB0003C2043F004030364012070471846704708
:104EC0002DE9F04104460F46164698462568686964
:104ED00027EA000080B2B8B16B695A0516D52B6875
:104EE00043F400732B606FF480636B612022002316
:104EF000236384F83D2084F83E30226C42F00402A3
:104F0000226484F83C300120BDE8F081731CDED0BF
:104F1000FEF7C0FFA0EB0800B04201D8002ED5D1AB
:104F200000232022236384F83D2084F83E30226C45
:104F300042F02002E4E770B504460D4616462368A9
:104F40005B695B0701D5002070BD2046FFF79EFF1F
:104F5000A8B96A1CF3D0FEF79DFF801BA84201D8B8
:104F6000002DECD100232022236384F83D2084F817
:104F70003E30226C84F83C3042F020022264012052
:104F8000E2E770B504460D46164621684B6913F0FA
:104F9000400301D0002010E04A69D2060ED56FF020
:104FA00010024A612022236384F83D2084F83E30B9
:104FB000226C226484F83C30012070BDFEF76AFF49
:104FC000801BA84201D8002DDFD1002320222363BB
:104FD00084F83D2084F83E30226C42F02002E8E75D
:104FE0002DE9F84606460F4691461D464FEA114AFE
:104FF0003368BAF1010F0CBF5C699C6927EA0404AD
:10500000A4B2B4FA84F46409A14501D0002017E0E9
:105010006A1CEED0FEF73EFF089BC01AA84201D8DA
:10502000002DE5D100232022336386F83D2086F849
:105030003E30326C86F83C3042F02002326401206F
:10504000BDE8F88670B504460D46164623685B69D0
:105050001B0601D5002070BD2046FFF717FFA8B939
:105060006A1CF3D0FEF716FF801BA84201D8002D62
:10507000ECD100232022236384F83D2084F83E30C5
:10508000226C84F83C3042F0200222640120E2E7E6
:105090002DE9F0431546026885B0DDE90C789946A4
:1050A000136843F4807313600E463B46CDF80080CE
:1050B00000224FF001110446FFF792FF236838B138
:1050C0001B68DB0502D54FF40073236403200AE05C
:1050D00006F0FE061E61194943463A462046FFF790
:1050E000EFFE18B1012005B0BDE8F08323680390FE
:1050F0005A6903929B690393424639462046039BB3
:10510000FFF7A0FF40B1236C042B01BF2268136896
:1051100043F400731360E5E7B9F1010F236802D18E
:10512000EDB21D61DFE72A0A1A6139464246204680
:10513000FFF788FF0028E6D12368F1E702000100AD
:105140002DE9FF479A46036815461A6842F48062C3
:105150001A601A68DDE90C7842F480721A600E4613
:105160003B46CDF8008000224FF001110446FFF7C6
:1051700037FF236848B11B68DB0502D54FF4007385
:105180002364032004B0BDE8F0875FFA86F906F0D7
:10519000FE061E612A4943463A462046FFF790FE26
:1051A00008B10120EEE7236803905A6903929B69D6
:1051B0000393424639462046039BFFF743FF40B125
:1051C000236C042B01BF2268136843F4007313603F
:1051D000E7E7BAF1010F23681AD1EDB21D6142462B
:1051E00039462046FFF72EFF0028E9D122681368D0
:1051F00043F4807313604FF001110246CDF8008034
:105200003B462046FFF7ECFE226860B11368B3E727
:105210002A0A1A61394642462046FFF713FF002842
:10522000CED12368D9E749F001031361044943460D
:105230003A462046FFF744FE003818BF0120A1E798
:105240000200010070B5044608B9012070BD90F855
:105250003D3003F0FF021BB980F83C20FCF76EFCE8
:10526000242384F83D3023681A6822F001021A6072
:105270001A6842F400421A601A6822F400421A6066
:1052800001F018F83F4A6368934294BF3E4A3F4A90
:1052900090428CBF00220122002AD6D121683C4EC8
:1052A0004A68B0FBF6F622F03F0232434A60354AC4
:1052B0000D6A934284BF4FF49672724325F03F0506
:1052C00091BF721C4FF47A76B2FBF6F201322A4398
:1052D0000A62CD69421E2B4825F44F45834225F0D2
:1052E000FF0532D85B00B2FBF3F340F6FC720133EA
:1052F000134242D0C3F30B032B43CB61D4E90730F5
:105300000A68034322F0C00213430B608A68D4E9A1
:10531000030322F40342034322F0FF0213438B6092
:10532000D4E90530CA68034322F0FF021343CB607F
:105330000B6843F001030B6000202023206484F8F5
:105340003D30206384F83E0080E7A06850B903EB4D
:105350004303B2FBF3F30133C3F30B037BB143F419
:105360000043C9E719204343B2FBF3F30133C3F30E
:105370000B0323B143F44043BEE70423BCE70123FE
:10538000BAE700BFA08601007F841E00FF083D0031
:1053900040420F0010B5044698B10268242380F8FB
:1053A0003D30136823F001031360FCF70BFC002071
:1053B000206484F83C0084F83D00206384F83E00BB
:1053C00010BD0120FCE700002DE9F7430446994693
:1053D0000C9E0F469046FEF75DFD94F83D30202B65
:1053E000054603D0022003B0BDE8F08300903C499D
:1053F000192301222046FFF7F3FD0028F2D194F88B
:105400003C30012BEED02068012384F83C30036847
:10541000D9075EBF036843F001030360036823F408
:1054200000630360212384F83D30402384F83E303C
:10543000002323640A9B6362BDF82C306385638D6F
:105440002385284BE362CDE900654B464246394649
:105450002046FFF71DFE00282AD00120C3E7FFF7F2
:10546000F1FD40B1236C042B01BF2268136843F4A3
:1054700000731360F1E7636A27681A4612F8011B8C
:1054800039616262628D218D013A92B262857A69D8
:10549000481E80B2520720850AD548B15A783A6131
:1054A00002336362638D013B02399BB221856385C0
:1054B000238D2A4631462046002BD0D1FFF73BFDF5
:1054C0000028CFD12268136843F4007313602023AF
:1054D00084F83D3084F83C0084F83E0083E700BF48
:1054E000020010000000FFFF2DE9F043044687B0E2
:1054F0009946109F0D469046FEF7CCFC94F83D303F
:10550000202B064604D00225284607B0BDE8F083CC
:1055100000907649192301222046FFF761FD0028FB
:10552000F1D194F83C30012BEDD02068012384F8B0
:105530003C300368DB075EBF036843F00103036090
:10554000036823F400630360222384F83D30402382
:1055500084F83E30002323640E9B6362BDF83C3028
:105560006385638D2385624BE3622946CDE900762E
:105570004B4642462046FFF7E3FD054608B10125AC
:10558000C2E7228D2368B2B902905A6902929A69E1
:105590000292029A1A6842F400721A60DFF854818B
:1055A000238D002B2CD1202284F83D2084F83C3020
:1055B00084F83E30A8E7012A0AD11A6822F48062F2
:1055C0001A6003905A6903929A690392039AE1E779
:1055D000022A0ED11A6822F480621A601A6842F414
:1055E00000621A6004905A6904929B690493049BB8
:1055F000D4E705905A6905929B690593059BCDE711
:10560000032B56D8012B15D1324639462046FFF7D9
:10561000B8FC0028B3D123681A69636A1A70636AF8
:1056200001336362238D013B2385638D013B9BB274
:105630006385B5E7022B00963B464FF000024146DA
:10564000204619D1FFF7CCFC002898D123681A68AE
:1056500042F400721A601A69636A1A70626A531C13
:105660006362238D013B2385638D013B9BB2638580
:1056700023681B695370D2E7FFF7B2FC00287FF460
:105680007EAF23681A6822F480621A601A69636A1E
:105690001A70636A009601336362238D013B238590
:1056A000638D013B9BB2638502463B4641462046E3
:1056B000C8E7324639462046FFF763FC00287FF4EE
:1056C0005EAF23681A69636A1A70626A531C636268
:1056D000238D013B2385638D013B9BB2638523684A
:1056E000596949077FF55CAFC3E700BF02001000AE
:1056F0000000FFFF0400010090F83D0070472DE915
:10570000F043D20104684F68E568D1F800C0D1F8D1
:1057100018908432A3180CF10106586800F4704008
:105720005860E068C5F30B45C0F30B4030443D447E
:1057300040EA05405860E068CD68C0F30A000544BF
:10574000986800F470409860E6688868C6F30A06B6
:105750000130304440EA0540986018690E6920F035
:10576000070018614FF0000E1E619D6991F832002C
:1057700091F83180C3F818E091F8305045EA096596
:1057800045EA082545EA00459D61586920F0FF007B
:10579000586148695861D86920F4E06020F007003A
:1057A000D861D1E907500543DD61986A486AC3F8BA
:1057B00028E098621EB3012E23D0B01E022822D901
:1057C000072E0CBF02200120DD6A05F0E025DD6216
:1057D0008D6AC96AA7EB0C0745437843033040EA5A
:1057E0000540D862186B20F4FF6020F007001863B2
:1057F0001963A35843F00103A350BDE8F0830420CC
:10580000E2E70320E0E70220DEE7000038B50446C7
:10581000002863D090F8A13003F0FF021BB980F894
:10582000A020FCF7EDF9022384F8A13023689A69DF
:1058300022F070429A61D4E901200243E06899693C
:105840000243206902430A439A619A6824496069C5
:105850000A409A609A6842EA0042A06902439A604C
:10586000DA68E0690A40DA60DA6842EA0042206AEF
:105870000243DA601A69606A0A401A611A6942EAE8
:105880000042A06A02431A615A69114059615A697B
:10589000E16A42EA0142216B0A435A61D96A94F8EB
:1058A000360094F8355001F07F41D962D96A94F8F6
:1058B00034200A4342EA052242EA0042DA625A6B85
:1058C00042F006025A639A6942F001029A6100208E
:1058D0000123C4F8A40084F8A13038BD0120FCE7FE
:1058E00000F800F0704770477047036870B59E6B12
:1058F0005D6B7207044614D5690712D55A6B22F006
:1059000004025A630422DA63D0F8A43043F001039E
:10591000C0F8A430002380F8A12080F8A030FFF761
:10592000E1FFB20716D5AB0714D523685A6B22F0F6
:1059300002025A630222DA63D4F8A4301343C4F893
:10594000A430042384F8A130002384F8A03020463A
:10595000FFF7C8FFF00710D5E9070ED523685A6B8B
:1059600022F001025A630122DA63002384F8A120A5
:1059700084F8A0302046FFF7B6FF320711D52B0779
:105980000FD523685A6B22F008025A630822DA63A3
:10599000012384F8A130002384F8A0302046FFF7CB
:1059A000A3FF70BD2DE9F04190F8A030012B064611
:1059B0000F4694464FF002001FD04FF0010886F8C2
:1059C000A08086F8A10034240D4604FB02640FCDAC
:1059D00038340FC40FCD0FC40FCD0FC42B68236014
:1059E000304662463946FFF78AFE33680020C3F826
:1059F000248086F8A18086F8A000BDE8F081000030
:105A000030B590F8A030012B4FF002032CD0342495
:105A100004FB020480F8A130A46C3CB3012C27D015
:105A2000A51E9D4202D9072C18BF01230468D2018C
:105A3000843222444B43D46A24F0FF5424F4F814F3
:105A4000D4620C4C656A45F001056562D56A45EA89
:105A50000343D362636A43F001036362012380F866
:105A6000A130002380F8A030184630BD0423DDE7C4
:105A70000323DBE70068014037B500230193184B8F
:105A8000184D1A6C42F080521A641B6C03F080535C
:105A90000193019B144B01221A60FEF7FBF90446A7
:105AA0006B68DA030BD5114B0E4D01221A60FEF71D
:105AB000F1F904466B689B030AD5002006E0FEF767
:105AC000E9F9001BB0F57A7FEAD9032003B030BDB5
:105AD000FEF7E0F9001BB0F57A7FEBD9F5E700BFE0
